{
  "contractName": "BlockchainExplorer",
  "abi": [
    {
      "anonymous": false,
      "inputs": [
        {
          "indexed": true,
          "internalType": "address",
          "name": "from",
          "type": "address"
        },
        {
          "indexed": true,
          "internalType": "address",
          "name": "to",
          "type": "address"
        },
        {
          "indexed": false,
          "internalType": "uint256",
          "name": "value",
          "type": "uint256"
        },
        {
          "indexed": false,
          "internalType": "uint256",
          "name": "timestamp",
          "type": "uint256"
        }
      ],
      "name": "TransactionLogged",
      "type": "event"
    },
    {
      "inputs": [
        {
          "internalType": "address",
          "name": "to",
          "type": "address"
        }
      ],
      "name": "logTransaction",
      "outputs": [],
      "stateMutability": "payable",
      "type": "function"
    },
    {
      "inputs": [
        {
          "internalType": "uint256",
          "name": "blockNumber",
          "type": "uint256"
        }
      ],
      "name": "getBlockDetails",
      "outputs": [
        {
          "internalType": "uint256",
          "name": "",
          "type": "uint256"
        },
        {
          "internalType": "bytes32",
          "name": "",
          "type": "bytes32"
        },
        {
          "internalType": "address",
          "name": "",
          "type": "address"
        },
        {
          "internalType": "uint256",
          "name": "",
          "type": "uint256"
        },
        {
          "internalType": "uint256",
          "name": "",
          "type": "uint256"
        }
      ],
      "stateMutability": "view",
      "type": "function"
    },
    {
      "inputs": [],
      "name": "getLatestBlockDetails",
      "outputs": [
        {
          "internalType": "uint256",
          "name": "",
          "type": "uint256"
        },
        {
          "internalType": "bytes32",
          "name": "",
          "type": "bytes32"
        },
        {
          "internalType": "address",
          "name": "",
          "type": "address"
        },
        {
          "internalType": "uint256",
          "name": "",
          "type": "uint256"
        },
        {
          "internalType": "uint256",
          "name": "",
          "type": "uint256"
        }
      ],
      "stateMutability": "view",
      "type": "function"
    },
    {
      "inputs": [],
      "name": "logCurrentBlockDetails",
      "outputs": [
        {
          "internalType": "uint256",
          "name": "",
          "type": "uint256"
        },
        {
          "internalType": "bytes32",
          "name": "",
          "type": "bytes32"
        },
        {
          "internalType": "address",
          "name": "",
          "type": "address"
        },
        {
          "internalType": "uint256",
          "name": "",
          "type": "uint256"
        },
        {
          "internalType": "uint256",
          "name": "",
          "type": "uint256"
        }
      ],
      "stateMutability": "view",
      "type": "function"
    }
  ],
  "bytecode": "0x608060405234801561001057600080fd5b506103a2806100206000396000f3fe60806040526004361061003f5760003560e01c806301d007a3146100445780632abb016b146100735780633b0fa5d9146100b45780635b499343146100e3575b600080fd5b34801561005057600080fd5b506100596100ff565b60405161006a95949392919061027c565b60405180910390f35b34801561007f57600080fd5b5061009a60048036038101906100959190610226565b610121565b6040516100ab95949392919061027c565b60405180910390f35b3480156100c057600080fd5b506100c9610142565b6040516100da95949392919061027c565b60405180910390f35b6100fd60048036038101906100f891906101fd565b610169565b005b600080600080600061011043610121565b945094509450945094509091929394565b60008060008060008586404142449450945094509450945091939590929450565b60008060008060008043905061015781610121565b95509550955095509550509091929394565b8073ffffffffffffffffffffffffffffffffffffffff163373ffffffffffffffffffffffffffffffffffffffff167f568e1dfd35bc9ba4e25ae3bcaa032419bbb93848a4ffec1bf054d8c4f973575c34426040516101c89291906102cf565b60405180910390a350565b6000813590506101e28161033e565b92915050565b6000813590506101f781610355565b92915050565b60006020828403121561020f57600080fd5b600061021d848285016101d3565b91505092915050565b60006020828403121561023857600080fd5b6000610246848285016101e8565b91505092915050565b610258816102f8565b82525050565b6102678161030a565b82525050565b61027681610334565b82525050565b600060a082019050610291600083018861026d565b61029e602083018761025e565b6102ab604083018661024f565b6102b8606083018561026d565b6102c5608083018461026d565b9695505050505050565b60006040820190506102e4600083018561026d565b6102f1602083018461026d565b9392505050565b600061030382610314565b9050919050565b6000819050919050565b600073ffffffffffffffffffffffffffffffffffffffff82169050919050565b6000819050919050565b610347816102f8565b811461035257600080fd5b50565b61035e81610334565b811461036957600080fd5b5056fea2646970667358221220e780432d131c15e4305a5b215306a6d217f42b0bf2c4538575af6afdbf1d834564736f6c63430008000033",
  "immutableReferences": {},
  "source": "// SPDX-License-Identifier: MIT\r\npragma solidity ^0.8.0;\r\n\r\ncontract BlockchainExplorer {\r\n    event TransactionLogged(address indexed from, address indexed to, uint value, uint timestamp);\r\n\r\n    // Function to log transaction details\r\n    function logTransaction(address to) external payable {\r\n        emit TransactionLogged(msg.sender, to, msg.value, block.timestamp);\r\n    }\r\n\r\n    // Function to get block details\r\n    function getBlockDetails(uint blockNumber) public view returns (uint, bytes32, address, uint, uint) {\r\n        return (\r\n            blockNumber,\r\n            blockhash(blockNumber),\r\n            block.coinbase,\r\n            block.timestamp,\r\n            block.difficulty  // Replaced difficulty with prevrandao\r\n        );\r\n    }\r\n\r\n    // Function to get latest block details\r\n    function getLatestBlockDetails() external view returns (uint, bytes32, address, uint, uint) {\r\n        uint latestBlock = block.number;\r\n        return getBlockDetails(latestBlock);\r\n    }\r\n\r\n     // Another function that uses getBlockDetails\r\n    function logCurrentBlockDetails() public view returns (uint, bytes32, address, uint, uint) {\r\n        return getBlockDetails(block.number);\r\n    }\r\n}\r\n",
  "sourcePath": "C:\\Users\\akhos\\OneDrive\\Documents\\source\\Asiye\\blockchain-explorer\\contracts\\explorer.sol",
  "compiler": {
    "name": "solc",
    "version": "0.8.0+commit.c7dfd78e.Emscripten.clang"
  },
  "schemaVersion": "3.4.16",
  "updatedAt": "2024-08-13T18:08:57.395Z",
  "devdoc": {
    "kind": "dev",
    "methods": {},
    "version": 1
  },
  "userdoc": {
    "kind": "user",
    "methods": {},
    "version": 1
  }
}